{
  "_format": "hh-sol-artifact-1",
  "contractName": "Vault",
  "sourceName": "contracts/Vault.sol",
  "abi": [
    {
      "inputs": [
        {
          "internalType": "address",
          "name": "_token",
          "type": "address"
        }
      ],
      "stateMutability": "nonpayable",
      "type": "constructor"
    },
    {
      "inputs": [
        {
          "internalType": "address",
          "name": "user",
          "type": "address"
        },
        {
          "internalType": "uint256",
          "name": "amount",
          "type": "uint256"
        }
      ],
      "name": "deposit",
      "outputs": [],
      "stateMutability": "nonpayable",
      "type": "function"
    },
    {
      "inputs": [
        {
          "internalType": "address",
          "name": "",
          "type": "address"
        }
      ],
      "name": "deposited",
      "outputs": [
        {
          "internalType": "uint256",
          "name": "",
          "type": "uint256"
        }
      ],
      "stateMutability": "view",
      "type": "function"
    },
    {
      "inputs": [],
      "name": "token",
      "outputs": [
        {
          "internalType": "address",
          "name": "",
          "type": "address"
        }
      ],
      "stateMutability": "view",
      "type": "function"
    }
  ],
  "bytecode": "0x60a060405234801561001057600080fd5b5060405161066a38038061066a83398181016040528101906100329190610084565b8073ffffffffffffffffffffffffffffffffffffffff1660808173ffffffffffffffffffffffffffffffffffffffff1660601b81525050506100f6565b60008151905061007e816100df565b92915050565b60006020828403121561009657600080fd5b60006100a48482850161006f565b91505092915050565b60006100b8826100bf565b9050919050565b600073ffffffffffffffffffffffffffffffffffffffff82169050919050565b6100e8816100ad565b81146100f357600080fd5b50565b60805160601c61055061011a6000396000818160b2015261021101526105506000f3fe608060405234801561001057600080fd5b50600436106100415760003560e01c806347e7ef2414610046578063cb13cddb14610062578063fc0c546a14610092575b600080fd5b610060600480360381019061005b919061029b565b6100b0565b005b61007c60048036038101906100779190610272565b6101f7565b60405161008991906103b3565b60405180910390f35b61009a61020f565b6040516100a79190610341565b60405180910390f35b7f000000000000000000000000000000000000000000000000000000000000000073ffffffffffffffffffffffffffffffffffffffff166323b872dd3330846040518463ffffffff1660e01b815260040161010d9392919061035c565b602060405180830381600087803b15801561012757600080fd5b505af115801561013b573d6000803e3d6000fd5b505050506040513d601f19601f8201168201806040525081019061015f91906102d7565b61019e576040517f08c379a000000000000000000000000000000000000000000000000000000000815260040161019590610393565b60405180910390fd5b806000808473ffffffffffffffffffffffffffffffffffffffff1673ffffffffffffffffffffffffffffffffffffffff16815260200190815260200160002060008282546101ec91906103df565b925050819055505050565b60006020528060005260406000206000915090505481565b7f000000000000000000000000000000000000000000000000000000000000000081565b600081359050610242816104d5565b92915050565b600081519050610257816104ec565b92915050565b60008135905061026c81610503565b92915050565b60006020828403121561028457600080fd5b600061029284828501610233565b91505092915050565b600080604083850312156102ae57600080fd5b60006102bc85828601610233565b92505060206102cd8582860161025d565b9150509250929050565b6000602082840312156102e957600080fd5b60006102f784828501610248565b91505092915050565b61030981610435565b82525050565b600061031c6013836103ce565b9150610327826104ac565b602082019050919050565b61033b81610473565b82525050565b60006020820190506103566000830184610300565b92915050565b60006060820190506103716000830186610300565b61037e6020830185610300565b61038b6040830184610332565b949350505050565b600060208201905081810360008301526103ac8161030f565b9050919050565b60006020820190506103c86000830184610332565b92915050565b600082825260208201905092915050565b60006103ea82610473565b91506103f583610473565b9250827fffffffffffffffffffffffffffffffffffffffffffffffffffffffffffffffff0382111561042a5761042961047d565b5b828201905092915050565b600061044082610453565b9050919050565b60008115159050919050565b600073ffffffffffffffffffffffffffffffffffffffff82169050919050565b6000819050919050565b7f4e487b7100000000000000000000000000000000000000000000000000000000600052601160045260246000fd5b7f5472616e736665722066726f6d206572726f7200000000000000000000000000600082015250565b6104de81610435565b81146104e957600080fd5b50565b6104f581610447565b811461050057600080fd5b50565b61050c81610473565b811461051757600080fd5b5056fea2646970667358221220ec3390216f5bdf50d0821fdbfd1af5ca13b506b7d0afb31d899cac9e28027ce164736f6c63430008040033",
  "linkReferences": {},
  "deployedLinkReferences": {}
}